{
  "contractName": "Counter",
  "abi": [
    {
      "inputs": [],
      "payable": false,
      "stateMutability": "nonpayable",
      "type": "constructor"
    },
    {
      "constant": false,
      "inputs": [],
      "name": "increment",
      "outputs": [],
      "payable": false,
      "stateMutability": "nonpayable",
      "type": "function"
    },
    {
      "constant": false,
      "inputs": [],
      "name": "decrement",
      "outputs": [],
      "payable": false,
      "stateMutability": "nonpayable",
      "type": "function"
    },
    {
      "constant": true,
      "inputs": [],
      "name": "getCount",
      "outputs": [
        {
          "internalType": "uint256",
          "name": "",
          "type": "uint256"
        }
      ],
      "payable": false,
      "stateMutability": "view",
      "type": "function"
    }
  ],
  "bytecode": "0x608060405234801561001057600080fd5b50600080819055506101d0806100276000396000f3fe608060405234801561001057600080fd5b50600436106100415760003560e01c80632baeceb714610046578063a87d942c14610050578063d09de08a1461006e575b600080fd5b61004e610078565b005b610058610103565b6040518082815260200191505060405180910390f35b61007661010c565b005b600160005410156100f1576040517f08c379a00000000000000000000000000000000000000000000000000000000081526004018080602001828103825260098152602001807f556e646572666c6f77000000000000000000000000000000000000000000000081525060200191505060405180910390fd5b60016000808282540392505081905550565b60008054905090565b6000546001600054011015610189576040517f08c379a00000000000000000000000000000000000000000000000000000000081526004018080602001828103825260088152602001807f4f766572666c6f7700000000000000000000000000000000000000000000000081525060200191505060405180910390fd5b6001600080828254019250508190555056fea265627a7a723158201db37b274371b5b1891c0bf90539ee6233ed9e0d855be5bfcc930634c4feb31264736f6c63430005100032",
  "source": "//// SPDX-License-Identifier: MIT\r\n\r\npragma solidity >=0.4.21 <0.7.0;\r\n\r\ncontract Counter {\r\n    uint256 private count;\r\n\r\n    constructor() public {\r\n        count = 0;\r\n    }\r\n\r\n    function increment() public {\r\n        require(count + 1 >= count, \"Overflow\");\r\n        count += 1;\r\n    }\r\n\r\n    function decrement() public {\r\n        require(count >= 1, \"Underflow\");\r\n        count -= 1;\r\n    }\r\n\r\n    function getCount() public view returns (uint256) {\r\n        return count;\r\n    }\r\n}\r\n",
  "sourcePath": "C:\\Server-side-transactions\\src\\SmartContract\\contracts\\Counter.sol",
  "compiler": {
    "name": "solc",
    "version": "0.5.16+commit.9c3226ce.Emscripten.clang"
  },
  "schemaVersion": "3.2.0",
  "updatedAt": "2020-06-16T14:04:59.679Z",
  "networkType": "ethereum",
  "devdoc": {
    "methods": {}
  },
  "userdoc": {
    "methods": {}
  }
}